:020000040800F2
:108000000000022015990008DD960008E59600089A
:10801000ED960008F5960008FD96000800000000A7
:1080200000000000000000000000000005970008AC
:108030001397000800000000219700082F97000800
:108040006599000865990008659900086599000818
:108050006599000865990008659900086599000808
:108060006599000865990008659900083D97000822
:1080700065990008659900086599000865990008E8
:1080800065990008659900086599000865990008D8
:1080900065990008659900086599000865990008C8
:1080A00065990008659900086599000865990008B8
:1080B00065990008659900086599000865990008A8
:1080C0006599000865990008659900086599000898
:1080D000659900086599000851970008659900089E
:1080E0006599000865990008659900086599000878
:1080F0006599000865990008659900086599000868
:108100006599000865990008659900086599000857
:108110006599000865990008659900086599000847
:108120006599000865990008659900086599000837
:108130006599000865990008659900086599000827
:108140006599000865990008659900086599000817
:108150006599000865990008659900086599000807
:1081600065990008659900086599000865990008F7
:1081700065990008659900086599000865990008E7
:1081800065990008659900086599000865990008D7
:1081900065990008000000006599000865990008CD
:1081A00065990008659900086599000865990008B7
:1081B00065990008659900086599000865990008A7
:1081C0006599000865990008659900086599000897
:0881D00065990008659900089B
:1081E00010B5054C237833B9044B13B10448AFF3F1
:1081F00000800123237010BDD40100200000000086
:10820000A414010808B5034B1BB103490348AFF39D
:10821000008008BD00000000D8010020A41401085F
:1082200001F0FF01102A2BDB10F0070F08D010F827
:10823000013B013A8B422DD010F0070F42B3F6D12B
:10824000F0B441EA012141EA014122F007047FF044
:1082500000070023F0E80256083C85EA010586EA9B
:10826000010685FA47F5A3FA87F586FA47F6A5FAD7
:1082700087F68EB9EED1F0BC01F0FF0102F00702E3
:1082800032B110F8013B013A83EA010313B1F8D18E
:108290000020704701387047002D06BF354603386F
:1082A000073815F0010F07D1013015F4807F02BFA8
:1082B000013015F4C03F0130F0BC0138704700BFF9
:1082C000034613F8012B002AFBD1181A0138704716
:1082D00081F0004102E000BF83F0004330B54FEA77
:1082E00041044FEA430594EA050F08BF90EA020FE4
:1082F0001FBF54EA000C55EA020C7FEA645C7FEA77
:10830000655C00F0E2804FEA5454D4EB5555B8BF99
:108310006D420CDD2C4480EA020281EA030382EA0A
:10832000000083EA010180EA020281EA0303362D9C
:1083300088BF30BD11F0004F4FEA01314FF4801C6F
:108340004CEA113102D0404261EB410113F0004F81
:108350004FEA03334CEA133302D0524263EB430338
:1083600094EA050F00F0A780A4F10104D5F1200ED6
:108370000DDB02FA0EFC22FA05F2801841F1000131
:1083800003FA0EF2801843FA05F359410EE0A5F105
:1083900020050EF1200E012A03FA0EFC28BF4CF036
:1083A000020C43FA05F3C01851EBE37101F00045EC
:1083B00007D54FF0000EDCF1000C7EEB00006EEBF9
:1083C0000101B1F5801F1BD3B1F5001F0CD3490883
:1083D0005FEA30004FEA3C0C04F101044FEA4452DA
:1083E00012F5800F80F09A80BCF1004F08BF5FEA61
:1083F000500C50F1000041EB045141EA050130BD41
:108400005FEA4C0C404141EB0101013C28BFB1F552
:10841000801FE9D291F0000F04BF01460020B1FA9D
:1084200081F308BF2033A3F10B03B3F120020CDA70
:108430000C3208DD02F1140CC2F10C0201FA0CF04E
:1084400021FA02F10CE002F11402D8BFC2F1200CB3
:1084500001FA02F120FA0CFCDCBF41EA0C01904069
:10846000E41AA2BF01EB0451294330BD6FEA0404B2
:108470001F3C1CDA0C340EDC04F11404C4F120029D
:1084800020FA04F001FA02F340EA030021FA04F3AF
:1084900045EA030130BDC4F10C04C4F1200220FA06
:1084A00002F001FA04F340EA0300294630BD21FA44
:1084B00004F0294630BD94F0000F83F4801306BF0A
:1084C00081F480110134013D4EE77FEA645C18BFFE
:1084D0007FEA655C29D094EA050F08BF90EA020F95
:1084E00005D054EA000C04BF1946104630BD91EA8D
:1084F000030F1EBF0021002030BD5FEA545C05D190
:108500004000494128BF41F0004130BD14F58004CE
:108510003CBF01F5801130BD01F0004545F0FE4142
:1085200041F470014FF0000030BD7FEA645C1ABF77
:10853000194610467FEA655C1CBF0B46024650EAAE
:10854000013406BF52EA033591EA030F41F40021DA
:1085500030BD00BF90F0000F04BF0021704730B560
:108560004FF4806404F132044FF000054FF0000135
:1085700050E700BF90F0000F04BF0021704730B5F6
:108580004FF4806404F1320410F0004548BF4042CB
:108590004FF000013EE700BF42004FEAE2014FEA20
:1085A00031014FEA02701FBF12F07F4393F07F4FFB
:1085B00081F06051704732F07F4208BF704793F0FE
:1085C0007F4F04BF41F40021704730B54FF4607411
:1085D00001F0004521F000411CE700BF50EA010214
:1085E00008BF704730B54FF000050AE050EA0102BD
:1085F00008BF704730B511F0004502D5404261EB2D
:1086000041014FF4806404F132045FEA915C3FF46D
:10861000D8AE4FF003025FEADC0C18BF03325FEA0A
:10862000DC0C18BF033202EBDC02C2F1200300FABB
:1086300003FC20FA02F001FA03FE40EA0E0021FAE0
:1086400002F11444BDE600BF70B54FF0FF0C4CF4CE
:10865000E06C1CEA11541DBF1CEA135594EA0C0F80
:1086600095EA0C0F00F0DEF82C4481EA030621EABB
:108670004C5123EA4C5350EA013518BF52EA0335F6
:1086800041F4801143F4801338D0A0FB02CE4FF0A8
:108690000005E1FB02E506F00042E0FB03E54FF0D8
:1086A0000006E1FB03569CF0000F18BF4EF0010ED0
:1086B000A4F1FF04B6F5007F64F5407404D25FEACC
:1086C0004E0E6D4146EB060642EAC62141EA55517F
:1086D0004FEAC52040EA5E504FEACE2EB4F1FD0CC1
:1086E00088BFBCF5E06F1ED8BEF1004F08BF5FEA3F
:1086F000500E50F1000041EB045170BD06F00046F1
:1087000046EA010140EA020081EA0301B4EB5C049D
:10871000C2BFD4EB0C0541EA045170BD41F4801195
:108720004FF0000E013C00F3AB8014F1360FDEBFBA
:10873000002001F0004170BDC4F10004203C35DA96
:108740000C341BDC04F11404C4F1200500FA05F319
:1087500020FA04F001FA05F240EA020001F00042BA
:1087600021F0004110EBD37021FA04F642EB060130
:108770005EEA430E08BF20EAD37070BDC4F10C045A
:10878000C4F1200500FA04F320FA05F001FA04F21E
:1087900040EA020001F0004110EBD37041F100010A
:1087A0005EEA430E08BF20EAD37070BDC4F1200515
:1087B00000FA05F24EEA020E20FA04F301FA05F27D
:1087C00043EA020321FA04F001F0004121FA04F225
:1087D00020EA020000EBD3705EEA430E08BF20EAF5
:1087E000D37070BD94F0000F0FD101F0004640002F
:1087F00041EB010111F4801F08BF013CF7D041EAB1
:10880000060195F0000F18BF704703F000465200B4
:1088100043EB030313F4801F08BF013DF7D043EA85
:108820000603704794EA0C0F0CEA135518BF95EA3B
:108830000C0F0CD050EA410618BF52EA4306D1D1C2
:1088400081EA030101F000414FF0000070BD50EAE1
:10885000410606BF1046194652EA430619D094EA6B
:108860000C0F02D150EA013613D195EA0C0F05D155
:1088700052EA03361CBF104619460AD181EA0301A9
:1088800001F0004141F0FE4141F470014FF0000061
:1088900070BD41F0FE4141F4780170BD70B54FF0FC
:1088A000FF0C4CF4E06C1CEA11541DBF1CEA13557C
:1088B00094EA0C0F95EA0C0F00F0A7F8A4EB05045E
:1088C00081EA030E52EA03354FEA013100F0888055
:1088D0004FEA03334FF0805545EA131343EA12631E
:1088E0004FEA022245EA111545EA10654FEA0026D3
:1088F0000EF000419D4208BF964244F1FD0404F58C
:10890000407402D25B084FEA3202B61A65EB0305E7
:108910005B084FEA32024FF480104FF4002CB6EBA4
:10892000020E75EB030E22BFB61A754640EA0C0024
:108930005B084FEA3202B6EB020E75EB030E22BF64
:10894000B61A754640EA5C005B084FEA3202B6EBA5
:10895000020E75EB030E22BFB61A754640EA9C0064
:108960005B084FEA3202B6EB020E75EB030E22BF34
:10897000B61A754640EADC0055EA060E18D04FEAF2
:10898000051545EA16754FEA06164FEAC30343EA92
:1089900052734FEAC2025FEA1C1CC0D111F4801F5F
:1089A0000BD141EA00014FF000004FF0004CB6E758
:1089B00011F4801F04BF01430020B4F1FD0C88BFF7
:1089C000BCF5E06F3FF6AFAEB5EB030C04BFB6EB02
:1089D000020C5FEA500C50F1000041EB045170BDF5
:1089E0000EF0004E4EEA113114EB5C04C2BFD4EB22
:1089F0000C0541EA045170BD41F480114FF0000EA6
:108A0000013C90E645EA060E8DE60CEA135594EA21
:108A10000C0F08BF95EA0C0F3FF43BAF94EA0C0F24
:108A20000AD150EA01347FF434AF95EA0C0F7FF499
:108A300025AF104619462CE795EA0C0F06D152EAED
:108A400003353FF4FDAE1046194622E750EA4106D1
:108A500018BF52EA43067FF4C5AE50EA41047FF4E2
:108A60000DAF52EA43057FF4EBAE12E74FF0FF3C47
:108A700006E000BF4FF0010C02E000BF4FF0010C18
:108A80004DF804CD4FEA410C7FEA6C5C4FEA430C91
:108A900018BF7FEA6C5C1BD001B050EA410C0CBFE0
:108AA00052EA430C91EA030F02BF90EA020F002042
:108AB000704710F1000F91EA030F58BF994208BFA9
:108AC00090422CBFD8176FEAE37040F00100704766
:108AD0004FEA410C7FEA6C5C02D150EA013C07D1BD
:108AE0004FEA430C7FEA6C5CD6D152EA033CD3D008
:108AF0005DF8040B704700BF8446104662468C4602
:108B00001946634600E000BF01B5FFF7B7FF002834
:108B100048BF10F1000F01BD4DF808EDFFF7F4FF5D
:108B20000CBF012000205DF808FB00BF4DF808EDE8
:108B3000FFF7EAFF34BF012000205DF808FB00BF0B
:108B40004DF808EDFFF7E0FF94BF012000205DF82D
:108B500008FB00BF4DF808EDFFF7CEFF94BF0120E2
:108B600000205DF808FB00BF4DF808EDFFF7C4FFDB
:108B700034BF012000205DF808FB00BF4FEA410C24
:108B80007FEA6C5C02D150EA013C0AD14FEA430C07
:108B90007FEA6C5C02D152EA033C02D14FF0000044
:108BA00070474FF0010070474FEA410212F5001282
:108BB00015D211D56FF47873B3EB625212D94FEA24
:108BC000C12343F0004343EA505311F0004F23FA0E
:108BD00002F018BF404270474FF00000704750EA63
:108BE000013005D111F0004008BF6FF00040704720
:108BF0004FF00000704700BF4FEA4102B2F1E0437E
:108C000024BFB3F5001CDCF1FE5C0DD901F0004C73
:108C10004FEAC0024CEA5070B2F1004F40EB8300C3
:108C200008BF20F00100704711F0804F21D113F1EF
:108C30003872BCBF01F00040704741F480114FEA28
:108C40005252C2F11802C2F1200C10FA0CF320FAB1
:108C500002F018BF40F001004FEAC1234FEAD323CE
:108C600003FA0CFC40EA0C0023FA02F34FEA430338
:108C7000CCE77FEA625307D150EA01331EBF4FF0C1
:108C8000FE4040F44000704701F0004040F0FE40DC
:108C900040F40000704700BF53B94AB9002908BF2B
:108CA00000281CBF4FF0FF314FF0FF3000F088B9B3
:108CB000ADF1080C6DE904CE00F006F8DDF804E033
:108CC000DDE9022304B070472DE9F047089D8E4688
:108CD00004468846002B4AD18A42174662D9B2FA26
:108CE00082F64EB1C6F1200301FA06F820FA03F32A
:108CF000B74043EA0808B4404FEA174E1FFA87FC12
:108D0000B8FBFEF1230C0EFB118843EA084301FB7C
:108D10000CF29A4209D9FB1801F1FF3080F0EA8089
:108D20009A4240F2E78002393B449A1AA3B2B2FB5E
:108D3000FEF00EFB102243EA024300FB0CFC9C45B4
:108D400009D9FB1800F1FF3280F0D6809C4540F233
:108D5000D3803B44023840EA0140A3EB0C030021DE
:108D60001DB1F3400022C5E90032BDE8F0878B4217
:108D700005D90DB1C5E9000100210846F5E7B3FAB0
:108D800083F1002946D1734502D3824200F2058166
:108D9000841A6EEB030201209046002DE5D0C5E950
:108DA0000048E2E7002A00F09080B2FA82F6002E36
:108DB00040F0A4808A1A030C4FEA174E80B2BCB26E
:108DC0000121B2FBFEFC0EFB1C2243EA024304FB22
:108DD0000CF29A4207D9FB180CF1FF3802D29A42E2
:108DE00000F2E080C4469B1AB3FBFEF20EFB123386
:108DF00040EA034302FB04F49C4207D9FB1802F14A
:108E0000FF3002D29C4200F2CA8002461B1B42EA9B
:108E10000C40A5E7C1F120068B4022FA06F71F435C
:108E20000EFA01F420FA06F32EFA06FE4FEA17496D
:108E3000234300FA01F81FFA87FCBEFBF9F01C0C73
:108E400009FB10EE44EA0E4400FB0CFEA64502FAB4
:108E500001F209D93C1900F1FF3A80F09C80A64547
:108E600040F2998002383C44A4EB0E041FFA83FEC2
:108E7000B4FBF9F309FB13444EEA044403FB0CFC76
:108E8000A44508D93C1903F1FF3E80F08280A44537
:108E90007FD9023B3C4443EA0040A4EB0C04A0FB16
:108EA00002EC64457346E14662D35FD05DB1B8EB36
:108EB000030264EB090404FA06F622FA01F31E43E6
:108EC000CC40C5E9006400214FE7B1FBF2FC010C86
:108ED00041EA0E4180B240EA01423B4638463C46F8
:108EE000B846BE462026B1FBF7F1A2EB080241EAE4
:108EF0000C4166E7014618E710462CE7C6F1200250
:108F00002EFA02F3B740B14020FA02F24FEA174EB0
:108F10000A43B3FBFEF8BCB20EFB1833110C41EA56
:108F2000034108FB04F9B04089454FEA104380B281
:108F30003ED9791808F1FF3C01D289451FD8A1EB31
:108F40000901B1FBFEF909FB04F80EFB191192B2FD
:108F500042EA0142424529D2BA1809F1FF31C4D28E
:108F60004245C2D2A9F102013A44BEE7F0459DD282
:108F7000BEEB02036CEB070C0138E14696E7A7EB6A
:108F800009094944A8F1020CB1FBFEF909FB04F8F8
:108F9000DBE773467FE7504666E70846FDE63B445D
:108FA000023A33E7ACF1020C3B441CE749469CE72C
:108FB000A1EB0901C446B1FBFEF909FB04F8C4E7C3
:108FC000704700BF00000000B0B588B000AF034696
:108FD000FB804D4BFB614D4BBB614D4B7B614D4B62
:108FE0003B61FB8807EE903AF8EE677AC7ED037AAB
:108FF000F868FFF7D1FA04460D46B869FFF7CCFAD6
:109000003BA3D3E90023FFF749FC02460B46204669
:109010002946FFF719FB02460B4610461946FFF793
:10902000EBFD03463C4A13603B4B93ED007AD7EDD2
:10903000057A67EE276A384BD3ED007A97ED067A0A
:1090400037EE677AC6EE877A344BC3ED007A334B3E
:1090500093ED007AD7ED047AC7EE276A16EE900AF0
:10906000FFF79AFA02460B4643EC102B08F01CF867
:1090700055EC104BF869FFF78FFA02460B46204675
:109080002946FFF70BFC02460B46104619461AA369
:10909000D3E90023FFF722F902460B464FF0000008
:1090A0001F49FFF7FBFB02460B461046194614A367
:1090B000D3E90023FFF710F902460B461046194684
:1090C0004FF00002174BFFF707F902460B46104618
:1090D0001946FFF791FD0346134A1360124B1B68B4
:1090E00007EE903AB0EE670A2037BD46B0BD00BF2C
:1090F0000000000000FEAF4083DBB5DCE1796B3F90
:1091000000000000000871406680864533335340FC
:1091100000E0924500F4FF46040200200002002017
:109120000000F03F00000840FC01002080B58CB03A
:1091300002AF234B234A9A6000F015FC00F050F870
:1091400000F0A6F900F07AF900F02CF900F094F89C
:109150004FF47A7000F078FC1B4801F093F9042278
:109160001A49194801F0BAF8184B1B881846FFF73E
:109170002BFFF0EE407A164BC3ED007A144B1B68C0
:109180001846FFF709FA02460B46381DCDE90023C1
:10919000104A202105F042FE78627B6A9AB2391D9E
:1091A0004FF0FF330C4803F0B7FE0C4B1B68013344
:1091B0000A4A13604FF47A7000F046FC00BFCBE718
:1091C00000ED00E0008000080C020020F00100200B
:1091D00008020020C0140108D8020020F801002075
:1091E00080B594B000AF07F118033822002118466B
:1091F00005F08DFE3B1D00221A605A609A60DA600D
:109200001A614FF4007002F007FE0223BB614FF4B5
:1092100080737B624023BB6202237B630223BB63B8
:109220000123FB6308233B6402237B640223BB64AA
:109230000223FB6407F11803184602F0A1FE03465F
:10924000002B01D000F03CF90F237B600323BB60AF
:109250000023FB6000233B6100237B613B1D022157
:10926000184603F09FF90346002B01D000F028F9BF
:1092700000BF5037BD4680BD80B588B000AF3B46CB
:1092800020220021184605F042FE404B404A1A6059
:109290003E4B4FF400325A603C4B00229A603B4BED
:1092A0000022DA60394B00221A61384B01225A61E0
:1092B000364B08229A61354B00221A77334B002235
:1092C0005A77324B04221A62304B002283F8242052
:1092D0002E4B0022DA622D4B00221A632B4B002208
:1092E00083F83820294B4FF48052DA63274B002251
:1092F00083F84020254800F035FE0346002B01D0BE
:1093000000F0DEF8234B3B6006237B600023BB604C
:109310007F23FB6004233B6100237B613B461946AE
:109320001A4801F02FF90346002B01D000F0C8F8CD
:10933000194B3B600C237B603B461946134801F0F8
:1093400021F90346002B01D000F0BAF8134B3B6023
:1093500012237B603B4619460C4801F013F9034683
:10936000002B01D000F0ACF80D4B3B6018237B6064
:109370003B461946054801F005F90346002B01D08C
:1093800000F09EF800BF2037BD4680BD0C020020D3
:1093900000010050000052470800900C1000C0105F
:1093A0000020903680B500AF224B234A1A60214B33
:1093B0004FF416525A601F4B00229A601D4B002238
:1093C000DA601C4B00221A611A4B0C225A61194BAD
:1093D00000229A61174B0022DA61164B00221A62B2
:1093E000144B00225A62134B00229A62114803F078
:1093F00043FD0346002B01D000F062F800210D4828
:1094000004F029FF0346002B01D000F059F8002199
:10941000084804F05EFF0346002B01D000F050F82E
:10942000044804F0DFFE0346002B01D000F048F8AA
:1094300000BF80BDD80200200044004080B582B04B
:1094400000AF124B9B6C114A43F0040393640F4B23
:109450009B6C03F004037B607B680C4B9B6C0B4A9A
:1094600043F001039364094B9B6C03F001033B60E1
:109470003B68002200210B2001F0E5FF0B2001F0EA
:10948000FCFF00BF0837BD4680BD00BF0010024092
:1094900080B483B000AF094BDB6C084A43F0010392
:1094A000D364064BDB6C03F001037B607B6800BF79
:1094B0000C37BD465DF8047B704700BF00100240CA
:1094C00080B400AF72B600BF00BFFDE780B582B0C8
:1094D00000AF0F4B1B6E0E4A43F0010313660C4B9B
:1094E0001B6E03F001037B607B68094B9B6D084A90
:1094F00043F080539365064B9B6D03F080533B60B4
:109500003B6802F02DFD00BF0837BD4680BD00BF9F
:109510000010024080B59EB000AF786007F1640390
:1095200000221A605A609A60DA601A6107F110032B
:1095300054220021184605F0EAFC7B681B68334A78
:1095400093425FD14FF400433B614FF000537B6582
:1095500007F11003184603F041FA0346002B01D02F
:10956000FFF7AEFF2A4BDB6C294A43F40053D36468
:10957000274BDB6C03F40053FB60FB68244BDB6C74
:10958000234A43F00103D364214BDB6C03F0010356
:10959000BB60BB68F0237B660323BB660023FB66CE
:1095A00007F1640319464FF0904002F0B3FA194BEB
:1095B000194A1A60174B24225A60164B00229A60EF
:1095C000144B0022DA60134B80221A61114B4FF4C6
:1095D00080725A610F4B4FF480629A610D4B0022EA
:1095E000DA610C4B00221A620A4801F061FF03465F
:1095F000002B01D0FFF764FF7B68064A5A65054AD5
:109600007B68936200BF7837BD4680BD0001005083
:1096100000100240780200200800024080B59EB091
:1096200000AF786007F1640300221A605A609A6004
:10963000DA601A6107F1100354220021184605F080
:1096400066FC7B681B68234A93423ED102233B6140
:109650000023BB6107F11003184603F0BFF903466E
:10966000002B01D0FFF72CFF1B4B9B6D1A4A43F4D4
:1096700000339365184B9B6D03F40033FB60FB686C
:10968000154BDB6C144A43F00103D364124BDB6CC3
:1096900003F00103BB60BB680C237B660223BB663F
:1096A0000023FB6600233B6707237B6707F1640306
:1096B00019464FF0904002F02DFA0022002126209A
:1096C00001F0C1FE262001F0D8FE00BF7837BD466C
:1096D00080BD00BF004400400010024080B400AFD5
:1096E00000BFFDE780B400AF00BFFDE780B400AF6E
:1096F00000BFFDE780B400AF00BFFDE780B400AF5E
:1097000000BFFDE780B400AF00BFBD465DF8047B3D
:10971000704780B400AF00BFBD465DF8047B704762
:1097200080B400AF00BFBD465DF8047B704780B5D4
:1097300000AF00F06BF900BF80BD000080B500AF46
:10974000024802F098F800BF80BD00BF78020020F8
:1097500080B500AF024803F06DFC00BF80BD00BFC4
:10976000D802002080B400AF01231846BD465DF842
:10977000047B704780B582B000AF7860396005F037
:1097800019FC034616221A604FF0FF3318460837BB
:10979000BD4680BD80B582B000AF78604FF0FF312C
:1097A0007868FFF7E7FF00BFFDE780B586B000AF40
:1097B000F860B9607A6000237B610AE0AFF3008053
:1097C0000146BB685A1CBA60CAB21A707B69013381
:1097D0007B617A697B689A42F0DB7B6818461837B0
:1097E000BD4680BD80B586B000AFF860B9607A60D4
:1097F00000237B6109E0BB685A1CBA601B781846DD
:10980000AFF300807B6901337B617A697B689A42A0
:10981000F1DB7B6818461837BD4680BD80B483B045
:1098200000AF78604FF0FF3318460C37BD465DF847
:10983000047B704780B483B000AF786039603B68C8
:109840004FF400525A60002318460C37BD465DF8AD
:10985000047B704780B483B000AF78600123184662
:109860000C37BD465DF8047B704780B485B000AF0F
:10987000F860B9607A60002318461437BD465DF879
:10988000047B704780B586B000AF7860144A154BF2
:10989000D31A7B617B693B61134B1B68002B02D1A0
:1098A000114B124A1A60104B1A687B6813443A69CC
:1098B0009A4207D205F07EFB03460C221A604FF055
:1098C000FF3309E0084B1B68FB60074B1A687B6895
:1098D0001344054A1360FB6818461837BD4680BD1F
:1098E00000000220000400006C030020C0040020DF
:1098F00080B400AF064BD3F88830054A43F47003B8
:10990000C2F8883000BFBD465DF8047B704700BFD9
:1099100000ED00E00D488546FFF7EAFF0C480D49D1
:109920000D4A002302E0D458C4500433C4188C42BA
:10993000F9D30A4A0A4C002301E013600432A24220
:10994000FBD305F03DFBFFF7F1FBFEE70000022033
:1099500000000020D401002094180108D401002048
:10996000C0040020FEE780B582B000AF0023FB7189
:10997000032001F05DFD0F2000F00EF80346002BE0
:1099800002D00123FB7101E0FFF7A0FDFB7918462F
:109990000837BD4680BD000080B584B000AF786058
:1099A0000023FB73164B1B68002B22D0154B1A6843
:1099B000134B1B684FF47A71B1FBF3F3B2FBF3F373
:1099C000184601F068FD0346002B0FD17B680F2B72
:1099D00009D8002279684FF0FF3001F034FD0A4ABF
:1099E0007B68136007E00123FB7304E00123FB7332
:1099F00001E00123FB73FB7B18461037BD4680BD99
:109A000008000020000000200400002080B400AF07
:109A1000054B1A68054B1B681344034A136000BFCB
:109A2000BD465DF8047B70477003002008000020ED
:109A300080B400AF034B1B681846BD465DF8047B3D
:109A4000704700BF7003002080B584B000AF78601D
:109A5000FFF7EEFFB8607B68FB60FB68B3F1FF3F88
:109A600004D0094B1B68FA681344FB6000BFFFF782
:109A7000DFFF0246BB68D31AFA689A42F7D800BFE4
:109A800000BF1037BD4680BD0800002080B483B001
:109A900000AF786039607B689B6823F47C123B6878
:109AA0001A437B689A6000BF0C37BD465DF8047BA3
:109AB000704780B483B000AF786039607B689B6882
:109AC00023F0E0723B681A437B689A6000BF0C3752
:109AD000BD465DF8047B704780B483B000AF78600A
:109AE0007B689B6803F0E07318460C37BD465DF851
:109AF000047B704780B487B000AFF860B9607A60CB
:109B00003B60FB6860331A46BB689B0013447B6173
:109B10007B691A68084B13407A6802F0F8413A688A
:109B20000A43134343F000427B691A6000BF1C37AD
:109B3000BD465DF8047B704700F0FF0380B485B03C
:109B400000AF786039607B6860331A463B689B00E1
:109B50001344FB60FB681B6803F0F8431846143796
:109B6000BD465DF8047B704780B487B000AFF860F5
:109B7000B9607A60FB6860331A46BB689B00134487
:109B80007B617B691B6823F000427B681A437B6919
:109B90001A6000BF1C37BD465DF8047B704780B477
:109BA00087B000AFF860B9607A60FB6860331A462E
:109BB000BB689B0013447B617B691B6823F0807248
:109BC0007B681A437B691A6000BF1C37BD465DF88D
:109BD000047B704780B487B000AFF860B9607A60EA
:109BE000FB6860331A46BB689B0013447B617B694A
:109BF0001B6823F000727B681A437B691A6000BF00
:109C00001C37BD465DF8047B704780B483B000AF5D
:109C1000786039607B685B6923F000423B681A43D7
:109C20007B685A6100BF0C37BD465DF8047B704706
:109C300080B483B000AF78607B68DB6803F4406376
:109C4000002B01D1012300E0002318460C37BD464C
:109C50005DF8047B704780B487B000AFF860B960EE
:109C60007A60FB6830331A46BB681B0A9B0003F01E
:109C70000C0313447B617B691A68BB6803F01F0304
:109C80001F2101FA03F3DB431A407B689B0E03F0AC
:109C90001F01BB6803F01F0301FA03F31A437B693A
:109CA0001A6000BF1C37BD465DF8047B704780B466
:109CB00087B000AFF860B9607A60FB6814331A4669
:109CC000BB685B0E9B0003F0040313447B617B695C
:109CD0001A68BB681B0D03F01F03072101FA03F389
:109CE000DB431A40BB681B0D03F01F03796801FAC0
:109CF00003F31A437B691A6000BF1C37BD465DF849
:109D0000047B704780B485B000AFF860B9607A60BA
:109D1000FB68D3F8B020BB68C3F31203DB431A40DF
:109D20007B6803F018030849D940BB680B40C3F3B4
:109D300012031A43FB68C3F8B02000BF1437BD46B6
:109D40005DF8047B704700BFFFFF070080B483B05D
:109D500000AF78607B689B6803F01F0318460C37E0
:109D6000BD465DF8047B704780B483B000AF786077
:109D70007B689B6823F0204323F03F037A6893605D
:109D800000BF0C37BD465DF8047B704780B483B0DC
:109D900000AF78607B689B6803F00053B3F1005F0D
:109DA00001D1012300E0002318460C37BD465DF8C1
:109DB000047B704780B483B000AF78607B689B6899
:109DC00023F0104323F03F0343F080527B689A60F6
:109DD00000BF0C37BD465DF8047B704780B483B08C
:109DE00000AF78607B689B6803F08053B3F1805FBD
:109DF00001D1012300E0002318460C37BD465DF871
:109E0000047B704780B483B000AF78607B689B6848
:109E100023F0004323F03F0343F001027B689A6084
:109E200000BF0C37BD465DF8047B704780B483B03B
:109E300000AF78607B689B6823F0004323F03F030A
:109E400043F002027B689A6000BF0C37BD465DF8A4
:109E5000047B704780B483B000AF78607B689B68F8
:109E600003F00103012B01D1012300E00023184678
:109E70000C37BD465DF8047B704780B483B000AFFB
:109E800078607B689B6803F00203022B01D10123F9
:109E900000E0002318460C37BD465DF8047B704790
:109EA00080B483B000AF78607B689B6823F0004388
:109EB00023F03F0343F004027B689A6000BF0C3735
:109EC000BD465DF8047B704780B483B000AF786016
:109ED0007B689B6823F0004323F03F0343F01002AC
:109EE0007B689A6000BF0C37BD465DF8047B704705
:109EF00080B483B000AF78607B689B6803F0040394
:109F0000042B01D1012300E0002318460C37BD4685
:109F10005DF8047B704780B483B000AF78607B68E5
:109F20009B6823F0004323F03F0343F020027B684B
:109F30009A6000BF0C37BD465DF8047B704780B463
:109F400083B000AF78607B689B6803F00803082B40
:109F500001D1012300E0002318460C37BD465DF80F
:109F6000047B704790B589B000AF78600023FB7721
:109F70000023FB607B68002B01D10123A9E17B68F2
:109F80005B69002B7B68DB6D002B09D17868FFF7DC
:109F9000C1FA7B6800221A667B68002283F8582089
:109FA0007B681B681846FFF7F1FE0346002B04D0C0
:109FB0007B681B681846FFF7D7FE7B681B6818464E
:109FC000FFF70CFF0346002B15D17B681B68184672
:109FD000FFF7F0FE9C4B1B689B099C4AA2FB0323E6
:109FE0009B0901335B00FB6002E0FB68013BFB6007
:109FF000FB68002BF9D17B681B681846FFF7EEFE63
:10A000000346002B0DD17B68DB6D43F010027B68AB
:10A01000DA657B681B6E43F001027B681A660123D8
:10A02000FB777B681B681846FFF762FF78617B68E7
:10A03000DB6D03F01003002B40F042817B69002BA5
:10A0400040F03E817B68DB6D23F4817343F00202B4
:10A050007B68DA657B681B681846FFF7FBFE0346E2
:10A06000002B41D17B681B68B3F1A04F04D07B6803
:10A070001B68774A93420FD14FF0A040FFF7EAFEEA
:10A0800004467348FFF7E6FE03462343002B0CBF4C
:10A0900001230023DBB212E06E48FFF7DBFE04462B
:10A0A0006D48FFF7D7FE03461C436C48FFF7D2FE0E
:10A0B00003462343002B0CBF01230023DBB2002BFC
:10A0C00012D07B681B68B3F1A04F04D07B681B687B
:10A0D0005F4A934201D1624A00E0624A7B685B6852
:10A0E00019461046FFF7D2FC7B685B7F5A037B68FA
:10A0F000DB6B1A437B68DB681A437B689B681A43F7
:10A100007B6893F824301B041343BB617B6893F88E
:10A110002430012B06D17B689B6A013B5B04BA6942
:10A120001343BB617B68DB6A002B09D07B68DB6A69
:10A1300003F478727B681B6B1343BA691343BB61EA
:10A140007B681B68DA68484B13407A681268B96903
:10A150000B43D3607B681B681B6923F040617B68FD
:10A160005A6B7B681B680A431A617B681B68184638
:10A17000FFF7E5FE38617B69002B7FD13B69002B3F
:10A180007CD17B681B7F9A037B6893F838305B0037
:10A190001343BB617B681B68DB6823F4804323F0B7
:10A1A00002037A681268B9690B43D3607B681B6944
:10A1B000002B17D07B681B681A697B681B6842F408
:10A1C00080321A617B681B68D3F8C03023F47F5358
:10A1D00023F03F037A6811697A6812680B43C2F86A
:10A1E000C03013E07B681B681A697B681B6822F427
:10A1F00080321A617B681B68D3F8C0307A681268B5
:10A2000023F47F5323F03F03C2F8C0307B6893F8F8
:10A210004030012B2AD17B681B681B6923F4FF6344
:10A2200023F004037A68516C7A68926C11437A685F
:10A23000D26C11437A68126D0A431A437B681B681B
:10A2400042F001021A6119E000000020632D3E0572
:10A2500000010050000400500005005000060050AE
:10A2600000030050000700500740F0FF7B681B68A8
:10A270001A697B681B6822F001021A617B685B69BE
:10A28000012B0CD17B681B681B6B23F00F017B68D3
:10A290001B6A5A1E7B681B680A431A6307E07B68C7
:10A2A0001B681A6B7B681B6822F00F021A637B68BD
:10A2B000DB6D23F0030343F001027B68DA6507E0FE
:10A2C0007B68DB6D43F010027B68DA650123FB7766
:10A2D000FB7F18462437BD4690BD00BF80B586B0D1
:10A2E00000AFF860B9607A60FB681B68B3F1A04FFB
:10A2F00004D0FB681B685A4A934201D1594B00E0D5
:10A30000594B1846FFF722FD3861FB681B68184659
:10A31000FFF7EEFD0346002B40F09B80FB6893F8AF
:10A320005830012B01D1022396E0FB68012283F80B
:10A330005820FB681B684D4A934208D03B69002BAC
:10A3400005D03B69052B02D03B69092B7AD1F8680F
:10A3500000F014FE0346FB75FB7D002B6DD1FB68FE
:10A36000DB6D23F4706323F0010343F48072FB6818
:10A37000DA65FB681B683A4A934209D0FB681B68A0
:10A380003B4A934202D0FB681B6803E0394B01E073
:10A390004FF0A043FA681268934202D03B69002B49
:10A3A00005D1FB68DB6D23F48012FB68DA65FB687E
:10A3B000DB6D03F48053002B06D0FB681B6E23F08B
:10A3C0000602FB681A6602E0FB6800221A66FB6858
:10A3D0005B6D294ADA62FB685B6D284A1A63FB6889
:10A3E0005B6D274A5A63FB681B681C221A60FB6876
:10A3F000002283F85820FB681B685A68FB681B68BA
:10A4000042F010025A60FB681B68DA68FB681B6840
:10A4100042F00102DA60FB68586DFB681B6840334C
:10A420001946BA687B6801F0EBF80346FB75FB68D8
:10A430001B681846FFF734FD0DE0FB68002283F827
:10A44000582008E00123FB75FB68002283F85820A0
:10A4500001E00223FB75FB7D18461837BD4680BD21
:10A46000000100500003005000070050000600509B
:10A47000000500500004005067B100083FB200081A
:10A480005BB2000880B584B000AF78607B6893F859
:10A490005830012B01D1022351E07B68012283F85F
:10A4A00058200321786800F0ADFC0346FB73FB7B6A
:10A4B000002B3FD17B681B68DA687B681B6822F041
:10A4C0000102DA607B685B6D93F82530DBB2022B0A
:10A4D0000FD17B685B6D184601F00DF90346FB73E5
:10A4E000FB7B002B05D07B68DB6D43F040027B6873
:10A4F000DA657B681B685A687B681B6822F010026B
:10A500005A60FB7B002B05D1786800F0CDFD034637
:10A51000FB7302E0786800F0C7FDFB7B002B09D1DC
:10A520007B68DB6D23F4885323F0010343F00102C1
:10A530007B68DA657B68002283F85820FB7B18462D
:10A540001037BD4680BD80B483B000AF786000BFD7
:10A550000C37BD465DF8047B704780B483B000AF14
:10A56000786000BF0C37BD465DF8047B704780B44F
:10A5700083B000AF786000BF0C37BD465DF8047B48
:10A580007047000080B5B6B000AF78603960002336
:10A5900087F8D7300023FB607B6893F85830012B95
:10A5A00002D1022300F013BC7B68012283F85820FB
:10A5B0007B681B681846FFF79BFC0346002B40F0A6
:10A5C000F3837B6818683B6859683B681B681A46C8
:10A5D000FFF741FB7B681B681846FFF789FCC7F84B
:10A5E000D0007B681B681846FFF7A9FCC7F8CC00B1
:10A5F000D7F8D030002B40F0D981D7F8CC30002BE1
:10A6000040F0D4813B689B68B3F1004F0FD17B6869
:10A6100018683B681B6800221946FFF748FB7B68F7
:10A620001B684FF000411846FFF7EFFA0EE07B6819
:10A6300018683B6819683B689B681A46FFF737FB48
:10A640007B681B6800211846FFF7DFFA3B685A69F0
:10A650007B681B68DB68DB0803F003035B0002FA1E
:10A6600003F3C7F8C8303B681B69042B22D07B6812
:10A6700018683B6819693B681A68D7F8C830FFF753
:10A6800039FA7B6818683B6819693B689B691A4608
:10A69000FFF785FA7B6818683B6819693B681B7F80
:10A6A000012B02D14FF0007300E000231A46FFF7A0
:10A6B00091FA7BE17B681B6800211846FFF73EFAA0
:10A6C0000346C3F31203002B0AD17B681B680021E9
:10A6D0001846FFF733FA03469B0E03F01F021EE0F5
:10A6E0007B681B6800211846FFF728FA0346C7F865
:10A6F000BC30D7F8BC3093FAA3F3C7F8C030D7F812
:10A70000C030C7F8B830D7F8B830002B01D12023BB
:10A7100004E0D7F8B830B3FA83F3DBB21A463B68EB
:10A720001B68C3F31203002B05D13B681B689B0E0B
:10A7300003F01F0318E03B681B68C7F8B030D7F878
:10A74000B03093FAA3F3C7F8AC30D7F8AC30C7F801
:10A75000B430D7F8B430002B01D1202304E0D7F86F
:10A76000B430B3FA83F3DBB29A4206D17B681B683C
:10A77000002200211846FFF7F7F97B681B680121CA
:10A780001846FFF7DBF90346C3F31203002B0AD187
:10A790007B681B6801211846FFF7D0F903469B0E22
:10A7A00003F01F021EE07B681B6801211846FFF7BB
:10A7B000C5F90346C7F8A430D7F8A43093FAA3F339
:10A7C000C7F8A030D7F8A030C7F8A830D7F8A8301D
:10A7D000002B01D1202304E0D7F8A830B3FA83F38B
:10A7E000DBB21A463B681B68C3F31203002B05D18A
:10A7F0003B681B689B0E03F01F0318E03B681B6857
:10A80000C7F89830D7F8983093FAA3F3C7F8943084
:10A81000D7F89430C7F89C30D7F89C30002B01D182
:10A82000202304E0D7F89C30B3FA83F3DBB29A42DA
:10A8300006D17B681B68002201211846FFF794F9B6
:10A840007B681B6802211846FFF778F90346C3F3BB
:10A850001203002B0AD17B681B6802211846FFF700
:10A860006DF903469B0E03F01F021EE07B681B6818
:10A8700002211846FFF762F90346C7F88C30D7F873
:10A880008C3093FAA3F3C7F88830D7F88830C7F82C
:10A890009030D7F89030002B01D1202304E0D7F876
:10A8A0009030B3FA83F3DBB21A463B681B68C3F3FC
:10A8B0001203002B05D13B681B689B0E03F01F039E
:10A8C00016E03B681B68C7F88030D7F8803093FAF1
:10A8D000A3F3FB67FB6FC7F88430D7F88430002BF5
:10A8E00001D1202304E0D7F88430B3FA83F3DBB23C
:10A8F0009A4206D17B681B68002202211846FFF7A6
:10A9000033F97B681B6803211846FFF717F90346E4
:10A91000C3F31203002B0AD17B681B68032118467E
:10A92000FFF70CF903469B0E03F01F0217E07B684C
:10A930001B6803211846FFF701F903467B677B6F0D
:10A9400093FAA3F33B673B6FBB67BB6F002B01D14F
:10A95000202303E0BB6FB3FA83F3DBB21A463B68F4
:10A960001B68C3F31203002B05D13B681B689B0EC9
:10A9700003F01F0311E03B681B68BB66BB6E93FAD4
:10A98000A3F37B667B6EFB66FB6E002B01D120235D
:10A9900003E0FB6EB3FA83F3DBB29A4206D17B6825
:10A9A0001B68002203211846FFF7DEF87B681B684E
:10A9B0001846FFF74FFA0346002B40F03D817B68B5
:10A9C00018683B6819683B68DB681A46FFF79AF914
:10A9D0003B68DB68A24A934240F02E817B6818688E
:10A9E0003B681B68C3F31203002B0BD13B681B6849
:10A9F0009B0E013303F01F03092B94BF0123002397
:10AA0000DBB219E03B681B68FB65FB6D93FAA3F3AF
:10AA1000BB65BB6D3B663B6E002B01D1202303E081
:10AA20003B6EB3FA83F3DBB2013303F01F03092B50
:10AA300094BF01230023DBB2002B79D03B681B6855
:10AA4000C3F31203002B07D13B681B689B0E013335
:10AA50009B0603F0F84215E03B681B683B653B6DC5
:10AA600093FAA3F3FB64FB6C7B657B6D002B01D138
:10AA7000202303E07B6DB3FA83F3DBB201339B0643
:10AA800003F0F8423B681B68C3F31203002B09D1A3
:10AA90003B681B689B0E013303F01F03012101FA81
:10AAA00003F317E03B681B687B647B6C93FAA3F3AA
:10AAB0003B643B6CBB64BB6C002B01D1202303E0E7
:10AAC000BB6CB3FA83F3DBB2013303F01F03012144
:10AAD00001FA03F342EA03013B681B68C3F3120364
:10AAE000002B0AD13B681B689B0E013303F01F0249
:10AAF00013465B0013441B0518E03B681B68BB63EF
:10AB0000BB6B93FAA3F37B637B6BFB63FB6B002B49
:10AB100001D1202303E0FB6BB3FA83F3DBB20133F3
:10AB200003F01F0213465B0013441B050B437EE03A
:10AB30003B681B68C3F31203002B07D13B681B68FB
:10AB40009B0E01339B0603F0F84215E03B681B683F
:10AB5000FB62FB6A93FAA3F3BB62BB6A3B633B6B8A
:10AB6000002B01D1202303E03B6BB3FA83F3DBB26C
:10AB700001339B0603F0F8423B681B68C3F31203E2
:10AB8000002B09D13B681B689B0E013303F01F03A8
:10AB9000012101FA03F317E03B681B683B623B6A43
:10ABA00093FAA3F3FB61FB697B627B6A002B01D103
:10ABB000202303E07B6AB3FA83F3DBB2013303F0B3
:10ABC0001F03012101FA03F342EA03013B681B68FA
:10ABD000C3F31203002B0DD13B681B689B0E01339E
:10ABE00003F01F0213465B0013441E3B1B0543F09A
:10ABF00000731BE03B681B687B617B6993FAA3F3DE
:10AC00003B613B69BB61BB69002B01D1202303E0A1
:10AC1000BB69B3FA83F3DBB2013303F01F021346BF
:10AC20005B0013441E3B1B0543F000730B433A6863
:10AC300092681946FFF73BF83B681A68094B1340C6
:10AC4000002B00F0BE807B681B68B3F1A04F04D0DE
:10AC50007B681B68044A93420AD1044B09E000BF99
:10AC600000007F40000008800001005000030050F9
:10AC7000594B1846FEF730FFC7F8C4003B681B6805
:10AC8000564A934204D03B681B68554A93423AD1D6
:10AC9000D7F8C43003F40003002B34D17B681B6861
:10ACA000B3F1A04F05D07B681B684E4A934240F039
:10ACB00085807B681B68B3F1A04F04D07B681B685C
:10ACC000494A934201D1494A00E0434AD7F8C43087
:10ACD00043F4000319461046FEF7EBFE444B1B6895
:10ACE0009B09444AA2FB03239B095A1C13465B00A1
:10ACF00013449B00FB6002E0FB68013BFB60FB68C8
:10AD0000002BF9D15AE03B681B683B4A934225D19E
:10AD1000D7F8C43003F08073002B1FD17B681B6809
:10AD2000314A934204D17B681B68344A934247D02E
:10AD30007B681B68B3F1A04F04D07B681B682A4A6C
:10AD4000934201D1294A00E0234AD7F8C43043F0A6
:10AD5000807319461046FEF7ACFE31E03B681B6875
:10AD6000274A93422DD1D7F8C43003F48003002B37
:10AD700027D17B681B681C4A934222D07B681B68E2
:10AD8000B3F1A04F04D07B681B68174A934201D1EE
:10AD9000164A00E0104AD7F8C43043F4800319463D
:10ADA0001046FEF786FE0CE07B68DB6D43F0200268
:10ADB0007B68DA65012387F8D73002E000BF00E046
:10ADC00000BF7B68002283F8582097F8D7301846D8
:10ADD000D837BD4680BD00BF00070050000021C32A
:10ADE0001000C09000060050000100500003005009
:10ADF00000000020632D3E05000052C700050050F2
:10AE0000000084CB80B588B000AF78603960002343
:10AE1000FB613B68BB617B681B681846FFF768F8FD
:10AE200038617B681B681846FFF789F8F8603B6952
:10AE3000002B03D1FB68002B00F098807B681B6817
:10AE4000DB6803F00073002B2AD07B685B7F012B4B
:10AE500026D17B681B7F012B22D10123BB6114E02B
:10AE6000FB69454A93420DD97B68DB6D43F01002C4
:10AE70007B68DA657B681B6E43F001027B681A66AB
:10AE8000012374E0FB690133FB617B681B681B686D
:10AE900003F04003402BE3D17B681B6840221A601B
:10AEA000BB69022B14D07B681B681846FFF720F89B
:10AEB0000346002B0CD07B681B681846FEF7DDFFAD
:10AEC0000346002B04D17B681B681846FEF7FCFF85
:10AED000BB69012B14D07B681B681846FFF72FF85D
:10AEE0000346002B0CD07B681B681846FEF7C5FF95
:10AEF0000346002B04D17B681B681846FFF70BF84C
:10AF0000BB69022B05D0BB69032B05D10C237B61E8
:10AF100005E008237B6102E004237B6100BFFEF7AC
:10AF200087FDB8601BE0FEF783FD0246BB68D31ABD
:10AF3000052B14D97B681B689A687B691340002B2A
:10AF40000DD07B68DB6D43F010027B68DA657B68AF
:10AF50001B6E43F001027B681A66012307E07B68E1
:10AF60001B689A687B691340002BDCD100231846CC
:10AF70002037BD4680BD00BFFFFF3FA380B584B032
:10AF800000AF78600023BB607B681B681846FEF743
:10AF900061FF0346002B76D17B681B689A683C4BA7
:10AFA0001340002B0DD07B68DB6D43F010027B68F3
:10AFB000DA657B681B6E43F001027B681A66012329
:10AFC00062E07B681B681846FEF71CFF7B681B6805
:10AFD000B3F1A04F04D07B681B682E4A934201D185
:10AFE0002D4B00E02D4B1846FEF776FD034603F48B
:10AFF0000003002B13D02A4B1B689B09294AA2FB94
:10B0000003239B095A1C13465B0013449B00BB603F
:10B0100002E0BB68013BBB60BB68002BF9D1FEF7C7
:10B0200007FDF86028E07B681B681846FEF712FFF2
:10B030000346002B04D17B681B681846FEF7E2FE2E
:10B04000FEF7F6FC0246FB68D31A022B14D97B6884
:10B050001B681B6803F00103012B0DD07B68DB6DBF
:10B0600043F010027B68DA657B681B6E43F00102D7
:10B070007B681A66012307E07B681B681B6803F086
:10B080000103012BCFD1002318461037BD4680BDE8
:10B090003F000080000100500003005000070050F6
:10B0A00000000020632D3E0580B584B000AF7860BD
:10B0B0007B681B681846FEF7E0FEF8607B681B683B
:10B0C0001846FEF7C7FE0346002B47D0FB68002B4F
:10B0D00044D17B681B689B6803F00D03012B0CD1E6
:10B0E0007B681B681846FEF7A1FE7B681B6803227D
:10B0F0001A60FEF79DFCB86029E07B68DB6D43F0C9
:10B1000010027B68DA657B681B6E43F001027B6886
:10B110001A66012323E0FEF78BFC0246BB68D31AB4
:10B12000022B14D97B681B689B6803F00103002B7A
:10B130000DD07B68DB6D43F010027B68DA657B68BD
:10B140001B6E43F001027B681A66012307E07B68EF
:10B150001B689B6803F00103002BDCD10023184619
:10B160001037BD4680BD80B584B000AF78607B6885
:10B170009B6AFB60FB68DB6D03F05003002B4BD137
:10B18000FB68DB6D43F40072FB68DA65FB681B68E3
:10B190001B6803F00803002B21D0FB681B681846CE
:10B1A000FEF746FD0346002B32D0FB681B68DB68C8
:10B1B00003F40053002B2BD1FB68DB6D23F480726A
:10B1C000FB68DA65FB68DB6D03F48053002B1FD14D
:10B1D000FB68DB6D43F00102FB68DA6518E0FB6891
:10B1E0001B68DB6803F00203002B11D1FB68DB6DE9
:10B1F00023F48072FB68DA65FB68DB6D03F480532F
:10B20000002B05D1FB68DB6D43F00102FB68DA65BA
:10B21000F868FFF798F90EE0FB68DB6D03F01003A8
:10B22000002B03D0F868FFF7A2F904E0FB685B6D20
:10B230005B6B7868984700BF1037BD4680BD80B50E
:10B2400084B000AF78607B689B6AFB60F868FFF7AA
:10B2500084F900BF1037BD4680BD80B584B000AF13
:10B2600078607B689B6AFB60FB68DB6D43F04002A3
:10B27000FB68DA65FB681B6E43F00402FB681A6624
:10B28000F868FFF774F900BF1037BD4680BD0000B5
:10B2900080B485B000AF78607B6803F00703FB6083
:10B2A0000C4BDB68BB60BA684FF6FF031340BB6012
:10B2B000FB681A02BB68134343F0BF6343F40033D7
:10B2C000BB60044ABB68D36000BF1437BD465DF85D
:10B2D000047B704700ED00E080B400AF044BDB68F6
:10B2E0001B0A03F007031846BD465DF8047B704750
:10B2F00000ED00E080B483B000AF0346FB7197F926
:10B300000730002B0BDBFB7903F01F02074997F98D
:10B3100007305B09012000FA02F241F8232000BF48
:10B320000C37BD465DF8047B704700BF00E100E0CC
:10B3300080B483B000AF03463960FB7197F90730E2
:10B34000002B0ADB3B68DAB20C4997F9073012018F
:10B35000D2B20B4483F800230AE03B68DAB2084912
:10B36000FB7903F00F03043B1201D2B20B441A76AF
:10B3700000BF0C37BD465DF8047B704700E100E07C
:10B3800000ED00E080B489B000AFF860B9607A6089
:10B39000FB6803F00703FB61FB69C3F10703042BA0
:10B3A00028BF0423BB61FB690433062B02D9FB6968
:10B3B000033B00E000237B614FF0FF32BB6902FAE0
:10B3C00003F3DA43BB681A407B699A404FF0FF31C0
:10B3D0007B6901FA03F3D9437B680B40134318469A
:10B3E0002437BD465DF8047B7047000080B582B00D
:10B3F00000AF78607B68013BB3F1807F01D301230C
:10B400000FE00A4A7B68013B53600F214FF0FF3089
:10B41000FFF78EFF054B00229A60044B07221A604B
:10B42000002318460837BD4680BD00BF10E000E08D
:10B4300080B582B000AF78607868FFF729FF00BF61
:10B440000837BD4680BD80B586B000AF0346B96001
:10B450007A60FB73FFF740FF78617A68B9687869B2
:10B46000FFF790FF024697F90F3011461846FFF795
:10B470005FFF00BF1837BD4680BD80B582B000AF0A
:10B480000346FB7197F907301846FFF733FF00BFFB
:10B490000837BD4680BD80B582B000AF786078685F
:10B4A000FFF7A4FF034618460837BD4680BD0000DD
:10B4B00080B584B000AF78607B68002B01D1012398
:10B4C0008DE07B681B681A46474B9A420FD87B6811
:10B4D0001B681A46454B1344454AA2FB03231B092C
:10B4E0009A007B685A647B68424A1A640EE07B6863
:10B4F0001B681A46404B13443D4AA2FB03231B0919
:10B500009A007B685A647B683C4A1A647B68022212
:10B5100083F825207B681B681B68FB60FB6823F4AD
:10B52000FF4323F07003FB607B689A687B68DB68ED
:10B530001A437B681B691A437B685B691A437B6803
:10B540009B691A437B68DB691A437B681B6A134358
:10B55000FA681343FB607B681B68FA681A607868B6
:10B5600000F076FA7B689B68B3F5804F02D17B6868
:10B5700000225A607B685A687B689B6CD2B21A6062
:10B580007B68DB6C7A68126D5A607B685B68002BA5
:10B5900010D07B685B68042B0CD8786800F096FAB2
:10B5A0007B685B6D00221A607B689B6D7A68D26D48
:10B5B0005A6008E07B6800225A657B6800229A6521
:10B5C0007B680022DA657B680022DA637B680122EF
:10B5D00083F825207B68002283F824200023184666
:10B5E0001037BD4680BD00BF07040240F8FFFDBF15
:10B5F000CDCCCCCC00000240F8FBFDBF00040240E3
:10B6000080B586B000AFF860B9607A603B60002317
:10B61000FB75FB6893F82430012B01D1022366E00F
:10B62000FB68012283F82420FB6893F82530DBB205
:10B63000012B55D1FB68022283F82520FB680022EC
:10B64000DA63FB681B681A68FB681B6822F001025A
:10B650001A603B687A68B968F86800F0BBF9FB6863
:10B660001B6B002B08D0FB681B681A68FB681B6803
:10B6700042F00E021A600FE0FB681B681A68FB6854
:10B680001B6822F004021A60FB681B681A68FB68DA
:10B690001B6842F00A021A60FB689B6C1B6803F48B
:10B6A0008033002B07D0FB689B6C1A68FB689B6C8F
:10B6B00042F480721A60FB685B6D002B07D0FB6858
:10B6C0005B6D1A68FB685B6D42F480721A60FB6800
:10B6D0001B681A68FB681B6842F001021A6005E0EB
:10B6E000FB68002283F824200223FB75FB7D1846AB
:10B6F0001837BD4680BD80B485B000AF78600023A8
:10B70000FB737B6893F82530DBB2022B05D07B6896
:10B710000422DA630123FB7337E07B681B681A6835
:10B720007B681B6822F00E021A607B689B6C1A68AB
:10B730007B689B6C22F480721A607B681B681A68B5
:10B740007B681B6822F001021A607B685B6C03F067
:10B750001F027B681B6C012101FA02F25A607B68B0
:10B76000DB6C7A68126D5A607B685B6D002B0CD0C5
:10B770007B685B6D1A687B685B6D22F480721A606F
:10B780007B689B6D7A68D26D5A607B68012283F872
:10B7900025207B68002283F82420FB7B1846143781
:10B7A000BD465DF8047B704780B584B000AF78601B
:10B7B0000023FB737B6893F82530DBB2022B0DD09E
:10B7C0007B680422DA637B68012283F825207B688A
:10B7D000002283F824200123FB7347E07B681B6869
:10B7E0001A687B681B6822F00E021A607B681B686F
:10B7F0001A687B681B6822F001021A607B689B6CE8
:10B800001A687B689B6C22F480721A607B685B6CA0
:10B8100003F01F027B681B6C012101FA02F25A60DF
:10B820007B68DB6C7A68126D5A607B685B6D002BFD
:10B830000CD07B685B6D1A687B685B6D22F480724C
:10B840001A607B689B6D7A68D26D5A607B680122B2
:10B8500083F825207B68002283F824207B689B6B7B
:10B86000002B03D07B689B6B78689847FB7B18465E
:10B870001037BD4680BD80B584B000AF78607B686E
:10B880001B6C1B68FB607B681B681B68BB607B686C
:10B890005B6C03F01F0304229A40FB681340002BEB
:10B8A00026D0BB6803F00403002B21D07B681B6803
:10B8B0001B6803F02003002B07D17B681B681A6804
:10B8C0007B681B6822F004021A607B685B6C03F0E3
:10B8D0001F027B681B6C042101FA02F25A607B682C
:10B8E0001B6B002B71D07B681B6B786898476CE0F2
:10B8F0007B685B6C03F01F0302229A40FB681340D5
:10B90000002B2ED0BB6803F00203002B29D07B68EC
:10B910001B681B6803F02003002B0BD17B681B689E
:10B920001A687B681B6822F00A021A607B68012291
:10B9300083F825207B685B6C03F01F027B681B6C1F
:10B94000022101FA02F25A607B68002283F8242067
:10B950007B68DB6A002B38D07B68DB6A78689847A5
:10B9600033E07B685B6C03F01F0308229A40FB689E
:10B970001340002B2AD0BB6803F00803002B25D00E
:10B980007B681B681A687B681B6822F00E021A60CD
:10B990007B685B6C03F01F027B681B6C012101FA62
:10B9A00002F25A607B680122DA637B68012283F825
:10B9B00025207B68002283F824207B685B6B002BAA
:10B9C00004D07B685B6B7868984700BF00BF103776
:10B9D000BD4680BD80B485B000AFF860B9607A60C4
:10B9E0003B60FB68DB6CFA68126D5A60FB685B6D4C
:10B9F000002B04D0FB689B6DFA68D26D5A60FB681F
:10BA00005B6C03F01F02FB681B6C012101FA02F260
:10BA10005A60FB681B683A685A60FB689B68102B89
:10BA200008D1FB681B687A689A60FB681B68BA6873
:10BA3000DA6007E0FB681B68BA689A60FB681B68FD
:10BA40007A68DA6000BF1437BD465DF8047B704742
:10BA500080B487B000AF78607B681B681A46164BCD
:10BA60009A4202D8154B7B6101E0154B7B617B69E3
:10BA70003B617B681B68DBB2083B124AA2FB0323D5
:10BA80001B09FB607B685B6C9B089A003B69134455
:10BA90001A467B689A647B680B4ADA64FB6803F099
:10BAA0001F0301229A407B681A6500BF1C37BD4600
:10BAB0005DF8047B704700BF0704024000080240A5
:10BAC00020080240CDCCCCCC8008024080B485B0A8
:10BAD00000AF78607B685B68DBB2FB60FA680B4B99
:10BAE00013449B001A467B685A657B68084A9A652E
:10BAF000FB68013B03F01F0301229A407B68DA6573
:10BB000000BF1437BD465DF8047B70473F820010CC
:10BB10004009024080B487B000AF786039600023EC
:10BB20007B615AE13B681A6801217B6901FA03F3E2
:10BB30001340FB60FB68002B00F04C813B685B68A6
:10BB400003F00303012B05D03B685B6803F003039C
:10BB5000022B30D17B689B683B617B695B000322D1
:10BB600002FA03F3DB433A6913403B613B68DA684E
:10BB70007B695B0002FA03F33A6913433B617B681C
:10BB80003A699A607B685B683B6101227B6902FAD3
:10BB900003F3DB433A6913403B613B685B681B0975
:10BBA00003F001027B6902FA03F33A6913433B6134
:10BBB0007B683A695A603B685B6803F00303032BB8
:10BBC00017D07B68DB683B617B695B00032202FA6C
:10BBD00003F3DB433A6913403B613B689A687B6936
:10BBE0005B0002FA03F33A6913433B617B683A69ED
:10BBF000DA603B685B6803F00303022B23D17B69A7
:10BC0000DA087B68083253F822303B617B6903F025
:10BC100007039B000F2202FA03F3DB433A69134048
:10BC20003B613B681A697B6903F007039B0002FADA
:10BC300003F33A6913433B617B69DA087B68083296
:10BC4000396943F822107B681B683B617B695B00A4
:10BC5000032202FA03F3DB433A6913403B613B687A
:10BC60005B6803F003027B695B0002FA03F33A6945
:10BC700013433B617B683A691A603B685B6803F475
:10BC80004033002B00F0A6805B4B1B6E5A4A43F0FA
:10BC900001031366584B1B6E03F00103BB60BB68C6
:10BCA000564A7B699B08023352F823303B617B691B
:10BCB00003F003039B000F2202FA03F3DB433A690C
:10BCC00013403B617B68B3F1904F1FD07B684C4AB7
:10BCD000934219D07B684B4A934213D07B684A4AFF
:10BCE00093420DD07B68494A934207D07B68484A0B
:10BCF000934201D105230AE0062308E0042306E06D
:10BD0000032304E0022302E0012300E000237A6918
:10BD100002F00302920093403A6913433B613749B2
:10BD20007B699B0802333A6941F82320394B9B68B1
:10BD30003B61FB68DB433A6913403B613B685B68EE
:10BD400003F48013002B03D03A69FB6813433B6173
:10BD5000304A3B6993602F4BDB683B61FB68DB43F8
:10BD60003A6913403B613B685B6803F40013002BA6
:10BD700003D03A69FB6813433B61264A3B69D360B1
:10BD8000244B5B683B61FB68DB433A6913403B61D2
:10BD90003B685B6803F40033002B03D03A69FB680F
:10BDA00013433B611B4A3B6953601A4B1B683B6161
:10BDB000FB68DB433A6913403B613B685B6803F413
:10BDC0008033002B03D03A69FB6813433B61114A6F
:10BDD0003B6913607B6901337B613B681A687B694F
:10BDE00022FA03F3002B7FF49DAE00BF00BF1C3787
:10BDF000BD465DF8047B7047001002400000014022
:10BE00000004004800080048000C004800100048EA
:10BE1000001400480004014080B485B000AF786091
:10BE20007B68002B41D14B4B1B6803F4C063B3F517
:10BE3000806F31D1474BD3F88030464A23F480736A
:10BE4000C2F88030434B1B6823F4C063414A43F47B
:10BE500000731360404B1B68322202FB03F33F4A1E
:10BE6000A2FB03239B0C0133FB6002E0FB68013B58
:10BE7000FB60384B5B6903F48063B3F5806F02D1DC
:10BE8000FB68002BF2D1334B5B6903F48063B3F59D
:10BE9000806F58D1032357E02E4BD3F880302D4AC2
:10BEA00023F48073C2F880304DE07B68B3F5007FE7
:10BEB00041D1284B1B6803F4C063B3F5806F31D1C7
:10BEC000244BD3F88030234A43F48073C2F8803087
:10BED000204B1B6823F4C0631E4A43F400731360B5
:10BEE0001D4B1B68322202FB03F31C4AA2FB0323F7
:10BEF0009B0C0133FB6002E0FB68013BFB60154BD0
:10BF00005B6903F48063B3F5806F02D1FB68002B9B
:10BF1000F2D1104B5B6903F48063B3F5806F12D1EB
:10BF2000032311E00B4BD3F880300A4A43F48073AB
:10BF3000C2F8803007E0074B1B6823F4C063054A52
:10BF400043F480631360002318461437BD465DF840
:10BF5000047B7047007000400000002083DE1B431C
:10BF600080B400AF054B9B68044A43F48043936060
:10BF700000BFBD465DF8047B704700BF0070004005
:10BF800080B588B000AF78607B68002B01D10123B9
:10BF9000FEE27B681B6803F00103002B75D0974B12
:10BFA0009B6803F00C03BB61944BDB6803F0030355
:10BFB0007B61BB690C2B02D17B69032B02D0BB696F
:10BFC000082B0BD18D4B1B6803F40033002B5BD087
:10BFD0007B685B68002B57D10123D9E27B685B68E3
:10BFE000B3F5803F06D1854B1B68844A43F4803308
:10BFF00013601DE07B685B68B3F5A02F0CD17F4B0D
:10C000001B687E4A43F4802313607C4B1B687B4A89
:10C0100043F4803313600BE0784B1B68774A23F4BA
:10C0200080331360754B1B68744A23F480231360BC
:10C030007B685B68002B13D0FDF7FAFC386108E0E1
:10C04000FDF7F6FC02463B69D31A642B01D90323A2
:10C050009EE26A4B1B6803F40033002BF0D014E01F
:10C06000FDF7E6FC386108E0FDF7E2FC02463B69BB
:10C07000D31A642B01D903238AE2604B1B6803F4B3
:10C080000033002BF0D100E000BF7B681B6803F099
:10C090000203002B75D0594B9B6803F00C03BB6166
:10C0A000564BDB6803F003037B61BB690C2B02D1A9
:10C0B0007B69022B02D0BB69042B1FD14F4B1B683D
:10C0C00003F48063002B05D07B68DB68002B01D173
:10C0D00001235DE2494B5B6823F0FE427B681B69EC
:10C0E0001B06464913434B60454B1B681846FDF73A
:10C0F00053FC0346002B43D0012349E27B68DB68F5
:10C10000002B23D03D4B1B683C4A43F480731360E3
:10C11000FDF78EFC386108E0FDF78AFC02463B69BA
:10C12000D31A022B01D9032332E2344B1B6803F4E8
:10C130008063002BF0D0314B5B6823F0FE427B68BC
:10C140001B691B062D4913434B601AE02B4B1B68E0
:10C150002A4A23F480731360FDF76AFC386108E013
:10C16000FDF766FC02463B69D31A022B01D9032373
:10C170000EE2224B1B6803F48063002BF0D100E039
:10C1800000BF7B681B6803F00803002B41D07B686D
:10C190005B69002B1CD0194BD3F89430174A43F03D
:10C1A0000103C2F89430FDF743FC386108E0FDF765
:10C1B0003FFC02463B69D31A022B01D90323E7E176
:10C1C0000E4BD3F8943003F00203002BEFD020E0A5
:10C1D0000A4BD3F89430094A23F00103C2F8943093
:10C1E000FDF726FC38610DE0FDF722FC02463B69B5
:10C1F000D31A022B06D90323CAE100BF0010024064
:10C20000040000208C4BD3F8943003F00203002B81
:10C21000EAD17B681B6803F00403002B00F0A680C2
:10C220000023FB77844B9B6D03F08053002B01D1DF
:10C23000012300E00023002B0DD07F4B9B6D7E4A35
:10C2400043F0805393657C4B9B6D03F08053FB6000
:10C25000FB680123FB77794B1B6803F48073002B89
:10C2600018D1764B1B68754A43F480731360FDF751
:10C27000DFFB386108E0FDF7DBFB02463B69D31AC0
:10C28000022B01D9032383E16C4B1B6803F48073F9
:10C29000002BF0D07B689B68012B08D1664BD3F84C
:10C2A0009030654A43F00103C2F8903024E07B6887
:10C2B0009B68052B10D1604BD3F890305E4A43F059
:10C2C0000403C2F890305C4BD3F890305A4A43F0E4
:10C2D0000103C2F890300FE0574BD3F89030564A24
:10C2E00023F00103C2F89030534BD3F89030524AF8
:10C2F00023F00403C2F890307B689B68002B16D0B3
:10C30000FDF796FB38610AE0FDF792FB02463B69B8
:10C31000D31A41F28832934201D9032338E1464BC4
:10C32000D3F8903003F00203002BEDD015E0FDF7B9
:10C330007FFB38610AE0FDF77BFB02463B69D31ABD
:10C3400041F28832934201D9032321E13A4BD3F8D9
:10C35000903003F00203002BEDD1FB7F012B05D1C0
:10C36000354B9B6D344A23F0805393657B681B6883
:10C3700003F02003002B3CD07B689B69002B1CD072
:10C380002D4BD3F898302C4A43F00103C2F8983073
:10C39000FDF74EFB386108E0FDF74AFB02463B69BA
:10C3A000D31A022B01D90323F2E0234BD3F89830A0
:10C3B00003F00203002BEFD01BE01F4BD3F89830A3
:10C3C0001D4A23F00103C2F89830FDF731FB3861B4
:10C3D00008E0FDF72DFB02463B69D31A022B01D979
:10C3E0000323D5E0144BD3F8983003F00203002B5D
:10C3F000EFD17B68DB69002B00F0C9800E4B9B6896
:10C4000003F00C030C2B00F083807B68DB69022BAC
:10C410005ED1094B1B68084A23F080731360FDF757
:10C4200007FB38610CE0FDF703FB02463B69D31ABA
:10C43000022B05D90323ABE000100240007000403E
:10C44000554B1B6803F00073002BECD1524BDA689C
:10C45000524B13407A68116A7A68526A013A1201A3
:10C4600011437A68926A120211437A68126B520879
:10C47000013A520511437A68526B5208013A52064A
:10C4800011437A68D26AD2060A4343491343CB6008
:10C49000414B1B68404A43F0807313603E4BDB689E
:10C4A0003D4A43F08073D360FDF7C2FA386108E07B
:10C4B000FDF7BEFA02463B69D31A022B01D90323CA
:10C4C00066E0354B1B6803F00073002BF0D05EE094
:10C4D000314B1B68304A23F080731360FDF7A8FAD4
:10C4E000386108E0FDF7A4FA02463B69D31A022B33
:10C4F00001D903234CE0284B1B6803F00073002B89
:10C50000F0D1254BDA682449254B1340CB603EE03F
:10C510007B68DB69012B01D1012339E01E4BDB680D
:10C520007B617B6903F003027B681B6A9A422CD112
:10C530007B6903F0F0027B685B6A013B1B019A4256
:10C5400023D17B6903F4FE427B689B6A1B029A42FB
:10C550001BD17B6903F078427B68DB6ADB069A4279
:10C5600013D17B6903F4C0027B681B6B5B08013B42
:10C570005B059A4209D17B6903F0C0627B685B6B03
:10C580005B08013B5B069A4201D0012300E00023D7
:10C5900018462037BD4680BD001002400C809F0128
:10C5A000FCFFEEFE80B586B000AF786039600023F6
:10C5B0007B617B68002B01D101231EE1914B1B683D
:10C5C00003F00F033A689A4210D98E4B1B6823F090
:10C5D0000F028C493B6813430B608A4B1B6803F0C6
:10C5E0000F033A689A4201D0012306E17B681B6879
:10C5F00003F00103002B73D07B685B68032B29D108
:10C60000814B1B6803F00073002B01D10123F4E080
:10C6100000F09EF938613B697C4A93423FD97A4BDE
:10C620009B6803F0F003002B09D07B681B6803F0C4
:10C630000203002B33D07B689B68002B2FD1724BF9
:10C640009B6823F0F003704A43F0800393608023DB
:10C650007B6124E07B685B68022B07D16A4B1B6817
:10C6600003F40033002B09D10123C6E0664B1B689D
:10C6700003F48063002B01D10123BEE000F0CEF86B
:10C6800038613B69614A934209D95F4B9B6823F04B
:10C69000F0035D4A43F08003936080237B615A4B33
:10C6A0009B6823F003027B685B68574913438B60E8
:10C6B000FDF7BEF9F8600AE0FDF7BAF90246FB683B
:10C6C000D31A41F28832934201D9032395E04E4BAD
:10C6D0009B6803F00C027B685B689B009A42EBD17D
:10C6E0007B681B6803F00203002B23D07B681B6868
:10C6F00003F00403002B05D0434B9B68424A43F4EC
:10C70000E06393607B681B6803F00803002B07D08D
:10C710003D4B9B6823F47C533B4A43F4E0639360B6
:10C72000394B9B6823F0F0027B689B6836491343C2
:10C730008B6008E07B69802B05D1334B9B68324AC4
:10C7400023F0F00393602F4B1B6803F00F033A684C
:10C750009A421DD22B4B1B6823F00F0229493B68DC
:10C7600013430B60FDF764F9F8600AE0FDF760F928
:10C770000246FB68D31A41F28832934201D903235F
:10C780003BE0204B1B6803F00F033A689A42EDD15F
:10C790007B681B6803F00403002B08D01A4B9B68CE
:10C7A00023F4E0627B68DB68174913438B607B6886
:10C7B0001B6803F00803002B09D0134B9B6823F47C
:10C7C00060527B681B69DB000F4913438B6000F0EC
:10C7D00025F802460C4B9B681B0903F00F030C491C
:10C7E000CB5C03F01F0322FA03F30A4A13600A4BDF
:10C7F0001B681846FDF7D0F8034618461837BD46A3
:10C8000080BD00BF002002400010024000B4C404FC
:10C81000D0140108000000200400002080B487B07C
:10C8200000AF2C4B9B6803F00C03042B02D12A4B66
:10C830003B6147E0274B9B6803F00C03082B02D1B8
:10C84000264B3B613EE0234B9B6803F00C030C2B13
:10C8500036D1204BDB6803F00303FB601D4BDB6824
:10C860001B0903F00F030133BB60FB68032B0CD1E2
:10C870001A4ABB68B2FBF3F3164AD268120A02F0F6
:10C880007F0202FB03F37B610CE0134ABB68B2FB3F
:10C89000F3F3104AD268120A02F07F0202FB03F39C
:10C8A0007B6100BF0B4BDB685B0E03F003030133BE
:10C8B0005B007B607A697B68B2FBF3F33B6101E06C
:10C8C00000233B613B6918461C37BD465DF8047B7D
:10C8D000704700BF001002400024F40000127A00EC
:10C8E00080B400AF034B1B681846BD465DF8047B5F
:10C8F000704700BF0000002080B500AFFFF7F0FFD9
:10C900000246064B9B681B0A03F007030449CB5CF5
:10C9100003F01F0322FA03F3184680BD0010024003
:10C92000E014010880B500AFFFF7DAFF0246064BBE
:10C930009B68DB0A03F007030449CB5C03F01F0389
:10C9400022FA03F3184680BD00100240E0140108EB
:10C9500080B487B000AF1E4BDB6803F003033B617C
:10C960001B4BDB681B0903F00F030133FB603B69C2
:10C97000032B0CD1174AFB68B2FBF3F3144AD268BD
:10C98000120A02F07F0202FB03F37B610CE0124A01
:10C99000FB68B2FBF3F30E4AD268120A02F07F0280
:10C9A00002FB03F37B6100BF094BDB685B0E03F006
:10C9B000030301335B00BB607A69BB68B2FBF3F32E
:10C9C0007B607B6818461C37BD465DF8047B70476A
:10C9D0000010024000127A000024F40080B586B0F6
:10C9E00000AF78600023FB740023BB747B681B6876
:10C9F00003F40023002B00F0988000237B74434B4A
:10CA00009B6D03F08053002B0DD1404B9B6D3F4A33
:10CA100043F0805393653D4B9B6D03F08053BB60A7
:10CA2000BB6801237B743A4B1B68394A43F480731B
:10CA30001360FCF7FDFFF86009E0FCF7F9FF024620
:10CA4000FB68D31A022B02D90323FB7405E0304B99
:10CA50001B6803F48073002BEFD0FB7C002B59D1B3
:10CA60002A4BD3F8903003F440737B617B69002B31
:10CA70001ED07B681B6D7A699A4219D0234BD3F87C
:10CA8000903023F440737B61204BD3F890301F4AE1
:10CA900043F48033C2F890301C4BD3F890301B4ADB
:10CAA00023F48033C2F89030184A7B69C2F8903082
:10CAB0007B6903F00103002B16D0FCF7B9FFF86087
:10CAC0000BE0FCF7B5FF0246FB68D31A41F288324F
:10CAD000934202D90323FB7406E00C4BD3F8903049
:10CAE00003F00203002BECD0FB7C002B0BD1074B97
:10CAF000D3F8903023F440727B681B6D03491343D5
:10CB0000C1F8903008E0FB7CBB7405E000100240E7
:10CB100000700040FB7CBB747B7C012B05D1A74BD4
:10CB20009B6DA64A23F0805393657B681B6803F0D6
:10CB30000103002B0AD0A14BD3F8883023F0030265
:10CB40007B685B689D491343C1F888307B681B682C
:10CB500003F00203002B0AD0984BD3F8883023F05F
:10CB60000C027B689B6895491343C1F888307B6849
:10CB70001B6803F00403002B0AD0904BD3F88830D5
:10CB800023F030027B68DB688C491343C1F888309E
:10CB90007B681B6803F00803002B0AD0874BD3F88F
:10CBA000883023F0C0027B681B6984491343C1F8B5
:10CBB00088307B681B6803F01003002B0AD07F4B82
:10CBC000D3F8883023F440727B685B697B49134358
:10CBD000C1F888307B681B6803F02003002B0AD063
:10CBE000764BD3F8883023F440627B689B697349A5
:10CBF0001343C1F888307B681B6803F04003002BA7
:10CC00000AD06E4BD3F8883023F440527B68DB693E
:10CC10006A491343C1F888307B681B6803F08003BE
:10CC2000002B0AD0654BD3F8883023F440427B6850
:10CC30001B6A62491343C1F888307B681B6803F4A0
:10CC40008073002B0AD05D4BD3F8883023F4403238
:10CC50007B685B6A59491343C1F888307B681B685D
:10CC600003F40033002B0AD0544BD3F89C3023F04C
:10CC700003027B689B6A51491343C1F89C307B686F
:10CC80001B6803F40073002B0AD04C4BD3F8883098
:10CC900023F440227B68DB6A48491343C1F888309B
:10CCA0007B681B6803F48063002B15D0434BD3F8DB
:10CCB000883023F440127B681B6B40491343C1F852
:10CCC00088307B681B6BB3F5801F05D13B4BDB685D
:10CCD0003A4A43F48013D3607B681B6803F4006313
:10CCE000002B15D0354BD3F8883023F440027B68F5
:10CCF0005B6B32491343C1F888307B685B6BB3F5DB
:10CD0000800F05D12D4BDB682C4A43F48013D36090
:10CD10007B681B6803F48053002B15D0274BD3F896
:10CD2000883023F040727B689B6B24491343C1F821
:10CD300088307B689B6BB3F1807F05D11F4BDB682C
:10CD40001E4A43F48013D3607B681B6803F40053CE
:10CD5000002B15D0194BD3F8883023F040627B6844
:10CD6000DB6B16491343C1F888307B68DB6BB3F18A
:10CD7000006F05D1114BDB68104A43F48013D36078
:10CD80007B681B6803F48043002B19D00B4BD3F84E
:10CD9000883023F040627B681B6C08491343C1F85C
:10CDA00088307B681B6CB3F1006F09D1034BDB68E3
:10CDB000024A43F48013D36002E000BF0010024037
:10CDC0007B681B6803F40043002B15D0294BD3F874
:10CDD000883023F040527B685B6C26491343C1F8CE
:10CDE00088307B685B6CB3F1805F05D1214BDB68D9
:10CDF000204A43F48033D3607B681B6803F480339C
:10CE0000002B15D01B4BD3F8883023F040427B68B1
:10CE10009B6C18491343C1F888307B689B6CB3F155
:10CE2000804F05D1134BDB68124A43F48033D36043
:10CE30007B681B6803F48023002B15D00D4BD3F8BF
:10CE40009C3023F440127B68DB6C0A491343C1F821
:10CE50009C307B68DB6CB3F5001F05D1054BDB68AC
:10CE6000044A43F48013D360BB7C18461837BD4690
:10CE700080BD00BF0010024080B582B000AF786076
:10CE80007B68002B01D1012342E07B68D3F8883016
:10CE9000002B06D17B68002283F884207868FCF799
:10CEA000BDFB7B682422C3F888207B681B681A6856
:10CEB0007B681B6822F001021A607B689B6A002B6A
:10CEC00002D0786800F014FF786800F015FC034683
:10CED000012B01D101231BE07B681B685A687B682A
:10CEE0001B6822F490425A607B681B689A687B68D2
:10CEF0001B6822F02A029A607B681B681A687B68AC
:10CF00001B6842F001021A60786800F093FF034644
:10CF100018460837BD4680BD80B58AB002AFF860BC
:10CF2000B9603B601346FB80FB68D3F88830202B48
:10CF30007BD1BB68002B02D0FB88002B01D10123E1
:10CF400074E0FB680022C3F89020FB682122C3F83C
:10CF50008820FCF76DFD7861FB68FA88A3F85420FF
:10CF6000FB68FA88A3F85620FB689B68B3F5805FDE
:10CF700008D1FB681B69002B04D10023FB61BB684F
:10CF8000BB6103E0BB68FB610023BB6130E03B6831
:10CF900000937B6900228021F86800F0F5FF0346CA
:10CFA000002B05D0FB682022C3F8882003233DE036
:10CFB000FB69002B0BD1BB691B881A46FB681B68F9
:10CFC000C2F308029A62BB690233BB6107E0FB69E6
:10CFD0001A78FB681B689A62FB690133FB61FB6886
:10CFE000B3F856309BB2013B9AB2FB68A3F85620C7
:10CFF000FB68B3F856309BB2002BC8D13B68009356
:10D000007B6900224021F86800F0BEFF0346002B38
:10D0100005D0FB682022C3F88820032306E0FB68C4
:10D020002022C3F88820002300E00223184620377E
:10D03000BD4680BD80B5BAB000AF78607B681B6824
:10D04000DB69C7F8E4307B681B681B68C7F8E03011
:10D050007B681B689B68C7F8DC30D7F8E42040F693
:10D060000F031340C7F8D830D7F8D830002B1BD1A6
:10D07000D7F8E43003F02003002B15D0D7F8E030C8
:10D0800003F02003002B05D1D7F8DC3003F08053E8
:10D09000002B09D07B685B6F002B00F000837B685E
:10D0A0005B6F78689847FAE2D7F8D830002B00F029
:10D0B0002381D7F8DC208D4B1340002B06D1D7F805
:10D0C000E0208B4B1340002B00F01681D7F8E430A2
:10D0D00003F00103002B11D0D7F8E03003F4807384
:10D0E000002B0BD07B681B6801221A627B68D3F887
:10D0F000903043F001027B68C3F89020D7F8E43009
:10D1000003F00203002B11D0D7F8DC3003F0010349
:10D11000002B0BD07B681B6802221A627B68D3F855
:10D12000903043F004027B68C3F89020D7F8E430D5
:10D1300003F00403002B11D0D7F8DC3003F0010317
:10D14000002B0BD07B681B6804221A627B68D3F823
:10D15000903043F002027B68C3F89020D7F8E430A7
:10D1600003F00803002B17D0D7F8E03003F02003BA
:10D17000002B05D1D7F8DC205C4B1340002B0BD0E3
:10D180007B681B6808221A627B68D3F8903043F0F2
:10D1900008027B68C3F89020D7F8E43003F40063FA
:10D1A000002B12D0D7F8E03003F08063002B0CD0B6
:10D1B0007B681B684FF400621A627B68D3F890307A
:10D1C00043F020027B68C3F890207B68D3F890304E
:10D1D000002B00F06682D7F8E43003F02003002B28
:10D1E00013D0D7F8E03003F02003002B05D1D7F897
:10D1F000DC3003F08053002B07D07B685B6F002B83
:10D2000003D07B685B6F786898477B68D3F8903071
:10D21000C7F8D4307B681B689B6803F04003402B41
:10D2200005D0D7F8D43003F02803002B54D0786809
:10D2300000F017FF7B681B689B6803F04003402BDE
:10D2400046D17B681B680833C7F89C30D7F89C3000
:10D2500053E8003FC7F89830D7F8983023F04003E0
:10D26000C7F8D0307B681B680833D7F8D020C7F8E0
:10D27000A820C7F8A430D7F8A410D7F8A82041E810
:10D280000023C7F8A030D7F8A030002BD9D17B6895
:10D29000D3F88030002B17D07B68D3F88030154A44
:10D2A0009A637B68D3F880301846FEF77DFA034610
:10D2B000002B19D07B68D3F880309B6B7A68D2F84A
:10D2C0008020104698470FE0786800F0FFF90BE0E7
:10D2D000786800F0FBF907E0786800F0F7F97B6800
:10D2E0000022C3F89020DCE100BFDAE10100001069
:10D2F000200100042FE100087B68DB6E012B40F069
:10D300007081D7F8E43003F01003002B00F069813E
:10D31000D7F8E03003F01003002B00F062817B6847
:10D320001B6810221A627B681B689B6803F040032D
:10D33000402B40F0D8807B68D3F880301B685B6856
:10D34000A7F8BE30B7F8BE30002B00F0AF807B6886
:10D35000B3F85C30B7F8BE209A4280F0A7807B68B3
:10D36000B7F8BE20A3F85E207B68D3F880301B6836
:10D370001B6803F02003002B40F087807B681B684C
:10D38000C7F88830D7F8883053E8003FC7F88430B2
:10D39000D7F8843023F48073C7F8B8307B681B68F3
:10D3A0001A46D7F8B830C7F89430C7F89020D7F8A5
:10D3B0009010D7F8942041E80023C7F88C30D7F8B4
:10D3C0008C30002BDAD17B681B6808337B677B6F5E
:10D3D00053E8003F3B673B6F23F00103C7F8B430CD
:10D3E0007B681B680833D7F8B420C7F88020FB6738
:10D3F000F96FD7F8802041E80023BB67BB6F002B93
:10D40000E1D17B681B6808333B663B6E53E8003F05
:10D41000FB65FB6D23F04003C7F8B0307B681B68E9
:10D420000833D7F8B020FA66BB66B96EFA6E41E8E9
:10D4300000237B667B6E002BE3D17B682022C3F840
:10D440008C207B680022DA667B681B68FB64FB6CBF
:10D4500053E8003FBB64BB6C23F01003C7F8AC304B
:10D460007B681B681A46D7F8AC30BB657A65796D66
:10D47000BA6D41E800233B653B6D002BE4D17B682E
:10D48000D3F880301846FEF736F97B6802221A6717
:10D490007B68B3F85C207B68B3F85E309BB2D31A2C
:10D4A0009BB21946786800F01BF9FCE07B68B3F882
:10D4B0005C30B7F8BE209A4240F0F5807B68D3F824
:10D4C00080301B681B6803F02003202B40F0EB80AA
:10D4D0007B6802221A677B68B3F85C30194678686B
:10D4E00000F0FEF8DFE07B68B3F85C207B68B3F8FF
:10D4F0005E309BB2D31AA7F8CE307B68B3F85E30AB
:10D500009BB2002B00F0D180B7F8CE30002B00F09A
:10D51000CC807B681B68BB63BB6B53E8003F7B63BD
:10D520007B6B23F49073C7F8C8307B681B681A467E
:10D53000D7F8C8307B643A64396C7A6C41E80023D0
:10D54000FB63FB6B002BE4D17B681B6808337B62B9
:10D550007B6A53E8003F3B623B6A23F0805323F031
:10D560000103C7F8C4307B681B680833D7F8C420B0
:10D570003A63FB62F96A3A6B41E80023BB62BB6A1B
:10D58000002BE1D17B682022C3F88C207B6800222D
:10D59000DA667B6800225A677B681B683B613B69DF
:10D5A00053E8003FFB60FB6823F01003C7F8C0306E
:10D5B0007B681B681A46D7F8C030FB61BA61B9694D
:10D5C000FA6941E800237B617B69002BE4D17B6829
:10D5D00002221A67B7F8CE301946786800F080F852
:10D5E00063E0D7F8E43003F48013002B0ED0D7F8B3
:10D5F000DC3003F48003002B08D07B681B684FF4F9
:10D6000080121A62786800F0CFFD51E0D7F8E4305C
:10D6100003F08003002B14D0D7F8E03003F0800330
:10D62000002B05D1D7F8DC3003F40003002B08D021
:10D630007B689B6F002B3AD07B689B6F786898471C
:10D6400035E0D7F8E43003F04003002B09D0D7F8D9
:10D65000E03003F04003002B03D0786800F079FD40
:10D6600026E0D7F8E43003F40003002B09D0D7F804
:10D67000E03003F08043002B03D0786800F0A8FD71
:10D6800016E0D7F8E43003F08073002B10D0D7F801
:10D69000E030002B0CDA786800F090FD08E000BF65
:10D6A00006E000BF04E000BF02E000BF00E000BFF2
:10D6B000E837BD4680BD00BF80B483B000AF78605E
:10D6C00000BF0C37BD465DF8047B704780B483B063
:10D6D00000AF786000BF0C37BD465DF8047B704733
:10D6E00080B483B000AF78600B467B8000BF0C37FE
:10D6F000BD465DF8047B70472DE9B04F8CB000AF9C
:10D700007861002387F82A307B699A687B691B69F6
:10D710001A437B695B691A437B69DB691343FB62CC
:10D720007B691B681A68AA4B13407A691268F96A08
:10D730000B4313607B691B685B6823F440517B6972
:10D74000DA687B691B680A435A607B699B69FB62E4
:10D750007B691B689F4A934204D07B691B6AFA6A03
:10D760001343FB627B691B689B6823F06E4323F4C1
:10D7700030637A691268F96A0B4393607B691B68AE
:10D78000DB6A23F00F017B695A6A7B691B680A43D5
:10D79000DA627B691B68904A934225D18F4BD3F89C
:10D7A000883003F00303032B1AD801A252F823F0A8
:10D7B000C1D70008D1D70008C9D70008D9D70008B9
:10D7C000012387F82B3016E1022387F82B3012E172
:10D7D000042387F82B300EE1082387F82B300AE169
:10D7E000102387F82B3006E17B691B687C4A934243
:10D7F00038D17A4BD3F8883003F00C030C2B2DD89A
:10D8000001A252F823F000BF3DD800085DD80008FF
:10D810005DD800085DD800084DD800085DD8000824
:10D820005DD800085DD8000845D800085DD800081C
:10D830005DD800085DD8000855D80008002387F897
:10D840002B30D8E0022387F82B30D4E0042387F86C
:10D850002B30D0E0082387F82B30CCE0102387F85A
:10D860002B30C8E07B691B685E4A934225D15B4B35
:10D87000D3F8883003F03003302B16D0302B18D873
:10D88000202B0AD0202B14D8002B02D0102B08D02C
:10D890000FE0002387F82B30ADE0022387F82B3010
:10D8A000A9E0042387F82B30A5E0082387F82B3064
:10D8B000A1E0102387F82B309DE07B691B684A4A62
:10D8C000934225D1454BD3F8883003F0C003C02BD9
:10D8D00016D0C02B18D8802B0AD0802B14D8002B40
:10D8E00002D0402B08D00FE0002387F82B3082E0D5
:10D8F000022387F82B307EE0042387F82B307AE070
:10D90000082387F82B3076E0102387F82B3072E05D
:10D910007B691B68354A93422AD1304BD3F8883053
:10D9200003F44073B3F5407F1AD0B3F5407F1BD8A2
:10D93000B3F5007F0CD0B3F5007F15D8002B03D0D2
:10D94000B3F5807F08D00FE0002387F82B3052E03A
:10D95000022387F82B304EE0042387F82B304AE06F
:10D96000082387F82B3046E0102387F82B3042E05D
:10D970007B691B68174A93423AD1184BD3F8883019
:10D9800003F44063B3F5406F1AD0B3F5406F1BD872
:10D99000B3F5006F0CD0B3F5006F15D8002B03D092
:10D9A000B3F5806F08D00FE0002387F82B3022E01A
:10D9B000022387F82B301EE0042387F82B301AE06F
:10D9C000082387F82B3016E0102387F82B3012E05D
:10D9D000F369FFCF00800040003801400010024092
:10D9E0000044004000480040004C0040005000400F
:10D9F000102387F82B307B691B68AE4A934240F0B6
:10DA0000978097F82B30082B23D801A252F823F0E7
:10DA100035DA000853DA00083DDA000853DA000866
:10DA200043DA000853DA000853DA000853DA000832
:10DA30004BDA0008FEF760FF786210E09E4B7B62D5
:10DA40000DE0FEF7EBFE786209E04FF400437B62E5
:10DA500005E000237B62012387F82A3000BF7B6A40
:10DA6000002B00F030817B695B6A944A32F81330F6
:10DA70001A467B6AB3FBF2F3BB617B695A681346B3
:10DA80005B001344BA699A4205D37B695B681B0348
:10DA9000BA699A4203D9012387F82A3013E17B6AD5
:10DAA0000022BB60FA607B695B6A844A32F81330FB
:10DAB0009BB200223B607A60D7E90023D7E90201DC
:10DAC000FBF7EAF802460B46104619464FF00002F3
:10DAD0004FF000030B0243EA1063020279694968C0
